{
  "_format": "hh-sol-artifact-1",
  "contractName": "AccessControl",
  "sourceName": "contracts/AccessControl.sol",
  "abi": [
    {
      "inputs": [
        {
          "internalType": "address",
          "name": "_roleManager",
          "type": "address"
        },
        {
          "internalType": "address",
          "name": "_auditTrail",
          "type": "address"
        }
      ],
      "stateMutability": "nonpayable",
      "type": "constructor"
    },
    {
      "anonymous": false,
      "inputs": [
        {
          "indexed": true,
          "internalType": "address",
          "name": "patient",
          "type": "address"
        },
        {
          "indexed": true,
          "internalType": "address",
          "name": "doctor",
          "type": "address"
        },
        {
          "indexed": false,
          "internalType": "uint256",
          "name": "expiresAt",
          "type": "uint256"
        }
      ],
      "name": "AccessGranted",
      "type": "event"
    },
    {
      "anonymous": false,
      "inputs": [
        {
          "indexed": true,
          "internalType": "address",
          "name": "patient",
          "type": "address"
        },
        {
          "indexed": true,
          "internalType": "address",
          "name": "doctor",
          "type": "address"
        }
      ],
      "name": "AccessRevoked",
      "type": "event"
    },
    {
      "inputs": [
        {
          "internalType": "address",
          "name": "",
          "type": "address"
        },
        {
          "internalType": "address",
          "name": "",
          "type": "address"
        }
      ],
      "name": "accessMap",
      "outputs": [
        {
          "internalType": "bool",
          "name": "isGranted",
          "type": "bool"
        },
        {
          "internalType": "uint256",
          "name": "grantedAt",
          "type": "uint256"
        },
        {
          "internalType": "uint256",
          "name": "expiresAt",
          "type": "uint256"
        }
      ],
      "stateMutability": "view",
      "type": "function"
    },
    {
      "inputs": [],
      "name": "auditTrail",
      "outputs": [
        {
          "internalType": "contract AuditTrail",
          "name": "",
          "type": "address"
        }
      ],
      "stateMutability": "view",
      "type": "function"
    },
    {
      "inputs": [
        {
          "internalType": "address",
          "name": "",
          "type": "address"
        },
        {
          "internalType": "uint256",
          "name": "",
          "type": "uint256"
        }
      ],
      "name": "doctorPatients",
      "outputs": [
        {
          "internalType": "address",
          "name": "",
          "type": "address"
        }
      ],
      "stateMutability": "view",
      "type": "function"
    },
    {
      "inputs": [
        {
          "internalType": "address",
          "name": "_doctor",
          "type": "address"
        }
      ],
      "name": "getDoctorPatients",
      "outputs": [
        {
          "internalType": "address[]",
          "name": "",
          "type": "address[]"
        }
      ],
      "stateMutability": "view",
      "type": "function"
    },
    {
      "inputs": [
        {
          "internalType": "address",
          "name": "_patient",
          "type": "address"
        }
      ],
      "name": "getPatientDoctors",
      "outputs": [
        {
          "internalType": "address[]",
          "name": "",
          "type": "address[]"
        }
      ],
      "stateMutability": "view",
      "type": "function"
    },
    {
      "inputs": [
        {
          "internalType": "address",
          "name": "_doctor",
          "type": "address"
        },
        {
          "internalType": "uint256",
          "name": "_durationSeconds",
          "type": "uint256"
        }
      ],
      "name": "grantAccess",
      "outputs": [],
      "stateMutability": "nonpayable",
      "type": "function"
    },
    {
      "inputs": [
        {
          "internalType": "address",
          "name": "_patient",
          "type": "address"
        },
        {
          "internalType": "address",
          "name": "_doctor",
          "type": "address"
        }
      ],
      "name": "hasAccess",
      "outputs": [
        {
          "internalType": "bool",
          "name": "",
          "type": "bool"
        }
      ],
      "stateMutability": "view",
      "type": "function"
    },
    {
      "inputs": [
        {
          "internalType": "address",
          "name": "",
          "type": "address"
        },
        {
          "internalType": "uint256",
          "name": "",
          "type": "uint256"
        }
      ],
      "name": "patientDoctors",
      "outputs": [
        {
          "internalType": "address",
          "name": "",
          "type": "address"
        }
      ],
      "stateMutability": "view",
      "type": "function"
    },
    {
      "inputs": [
        {
          "internalType": "address",
          "name": "_doctor",
          "type": "address"
        }
      ],
      "name": "revokeAccess",
      "outputs": [],
      "stateMutability": "nonpayable",
      "type": "function"
    },
    {
      "inputs": [],
      "name": "roleManager",
      "outputs": [
        {
          "internalType": "contract RoleManager",
          "name": "",
          "type": "address"
        }
      ],
      "stateMutability": "view",
      "type": "function"
    }
  ],
  "bytecode": "0x60806040523480156200001157600080fd5b5060405162001ba038038062001ba083398181016040528101906200003791906200012a565b816000806101000a81548173ffffffffffffffffffffffffffffffffffffffff021916908373ffffffffffffffffffffffffffffffffffffffff16021790555080600160006101000a81548173ffffffffffffffffffffffffffffffffffffffff021916908373ffffffffffffffffffffffffffffffffffffffff160217905550505062000171565b600080fd5b600073ffffffffffffffffffffffffffffffffffffffff82169050919050565b6000620000f282620000c5565b9050919050565b6200010481620000e5565b81146200011057600080fd5b50565b6000815190506200012481620000f9565b92915050565b60008060408385031215620001445762000143620000c0565b5b6000620001548582860162000113565b9250506020620001678582860162000113565b9150509250929050565b611a1f80620001816000396000f3fe608060405234801561001057600080fd5b506004361061009d5760003560e01c80639df89256116100665780639df892561461016c578063aba02c1f14610188578063ba508467146101a6578063dafe614e146101d6578063ee6e991e146102065761009d565b8062435da5146100a25780631709ef07146100c05780634ac9e300146100f057806352242f551461012057806385e6853114610150575b600080fd5b6100aa610238565b6040516100b791906111d8565b60405180910390f35b6100da60048036038101906100d59190611236565b61025c565b6040516100e79190611291565b60405180910390f35b61010a600480360381019061010591906112e2565b610352565b6040516101179190611331565b60405180910390f35b61013a6004803603810190610135919061134c565b6103a0565b6040516101479190611437565b60405180910390f35b61016a6004803603810190610165919061134c565b61046d565b005b610186600480360381019061018191906112e2565b61084f565b005b610190610e47565b60405161019d919061147a565b60405180910390f35b6101c060048036038101906101bb919061134c565b610e6d565b6040516101cd9190611437565b60405180910390f35b6101f060048036038101906101eb91906112e2565b610f3a565b6040516101fd9190611331565b60405180910390f35b610220600480360381019061021b9190611236565b610f88565b60405161022f939291906114a4565b60405180910390f35b60008054906101000a900473ffffffffffffffffffffffffffffffffffffffff1681565b600080600260008573ffffffffffffffffffffffffffffffffffffffff1673ffffffffffffffffffffffffffffffffffffffff16815260200190815260200160002060008473ffffffffffffffffffffffffffffffffffffffff1673ffffffffffffffffffffffffffffffffffffffff1681526020019081526020016000206040518060600160405290816000820160009054906101000a900460ff16151515158152602001600182015481526020016002820154815250509050806000015161032a57600091505061034c565b600081604001510361034057600191505061034c565b80604001514211159150505b92915050565b6004602052816000526040600020818154811061036e57600080fd5b906000526020600020016000915091509054906101000a900473ffffffffffffffffffffffffffffffffffffffff1681565b6060600360008373ffffffffffffffffffffffffffffffffffffffff1673ffffffffffffffffffffffffffffffffffffffff16815260200190815260200160002080548060200260200160405190810160405280929190818152602001828054801561046157602002820191906000526020600020905b8160009054906101000a900473ffffffffffffffffffffffffffffffffffffffff1673ffffffffffffffffffffffffffffffffffffffff1681526020019060010190808311610417575b50505050509050919050565b6003808111156104805761047f6114db565b5b60008054906101000a900473ffffffffffffffffffffffffffffffffffffffff1673ffffffffffffffffffffffffffffffffffffffff166344276733336040518263ffffffff1660e01b81526004016104d99190611331565b602060405180830381865afa1580156104f6573d6000803e3d6000fd5b505050506040513d601f19601f8201168201806040525081019061051a919061152f565b600381111561052c5761052b6114db565b5b1461056c576040517f08c379a0000000000000000000000000000000000000000000000000000000008152600401610563906115b9565b60405180910390fd5b600260003373ffffffffffffffffffffffffffffffffffffffff1673ffffffffffffffffffffffffffffffffffffffff16815260200190815260200160002060008273ffffffffffffffffffffffffffffffffffffffff1673ffffffffffffffffffffffffffffffffffffffff16815260200190815260200160002060000160009054906101000a900460ff16610638576040517f08c379a000000000000000000000000000000000000000000000000000000000815260040161062f90611625565b60405180910390fd5b6000600260003373ffffffffffffffffffffffffffffffffffffffff1673ffffffffffffffffffffffffffffffffffffffff16815260200190815260200160002060008373ffffffffffffffffffffffffffffffffffffffff1673ffffffffffffffffffffffffffffffffffffffff16815260200190815260200160002060000160006101000a81548160ff021916908315150217905550610718600360003373ffffffffffffffffffffffffffffffffffffffff1673ffffffffffffffffffffffffffffffffffffffff16815260200190815260200160002082610fcc565b610760600460008373ffffffffffffffffffffffffffffffffffffffff1673ffffffffffffffffffffffffffffffffffffffff16815260200190815260200160002033610fcc565b600160009054906101000a900473ffffffffffffffffffffffffffffffffffffffff1673ffffffffffffffffffffffffffffffffffffffff1663a45f9717600333846040518463ffffffff1660e01b81526004016107c0939291906116d9565b600060405180830381600087803b1580156107da57600080fd5b505af11580156107ee573d6000803e3d6000fd5b505050508073ffffffffffffffffffffffffffffffffffffffff163373ffffffffffffffffffffffffffffffffffffffff167f825c8be24eb0df19500f63e86c29e7d0d951e73056b889b891d85e40938d9b6e60405160405180910390a350565b600380811115610862576108616114db565b5b60008054906101000a900473ffffffffffffffffffffffffffffffffffffffff1673ffffffffffffffffffffffffffffffffffffffff166344276733336040518263ffffffff1660e01b81526004016108bb9190611331565b602060405180830381865afa1580156108d8573d6000803e3d6000fd5b505050506040513d601f19601f820116820180604052508101906108fc919061152f565b600381111561090e5761090d6114db565b5b1461094e576040517f08c379a0000000000000000000000000000000000000000000000000000000008152600401610945906115b9565b60405180910390fd5b60026003811115610962576109616114db565b5b60008054906101000a900473ffffffffffffffffffffffffffffffffffffffff1673ffffffffffffffffffffffffffffffffffffffff166344276733846040518263ffffffff1660e01b81526004016109bb9190611331565b602060405180830381865afa1580156109d8573d6000803e3d6000fd5b505050506040513d601f19601f820116820180604052508101906109fc919061152f565b6003811115610a0e57610a0d6114db565b5b14610a4e576040517f08c379a0000000000000000000000000000000000000000000000000000000008152600401610a459061176f565b60405180910390fd5b600260003373ffffffffffffffffffffffffffffffffffffffff1673ffffffffffffffffffffffffffffffffffffffff16815260200190815260200160002060008373ffffffffffffffffffffffffffffffffffffffff1673ffffffffffffffffffffffffffffffffffffffff16815260200190815260200160002060000160009054906101000a900460ff1615610b1b576040517f08c379a0000000000000000000000000000000000000000000000000000000008152600401610b12906117db565b60405180910390fd5b6000808214610b35578142610b30919061182a565b610b38565b60005b9050604051806060016040528060011515815260200142815260200182815250600260003373ffffffffffffffffffffffffffffffffffffffff1673ffffffffffffffffffffffffffffffffffffffff16815260200190815260200160002060008573ffffffffffffffffffffffffffffffffffffffff1673ffffffffffffffffffffffffffffffffffffffff16815260200190815260200160002060008201518160000160006101000a81548160ff0219169083151502179055506020820151816001015560408201518160020155905050600360003373ffffffffffffffffffffffffffffffffffffffff1673ffffffffffffffffffffffffffffffffffffffff168152602001908152602001600020839080600181540180825580915050600190039060005260206000200160009091909190916101000a81548173ffffffffffffffffffffffffffffffffffffffff021916908373ffffffffffffffffffffffffffffffffffffffff160217905550600460008473ffffffffffffffffffffffffffffffffffffffff1673ffffffffffffffffffffffffffffffffffffffff168152602001908152602001600020339080600181540180825580915050600190039060005260206000200160009091909190916101000a81548173ffffffffffffffffffffffffffffffffffffffff021916908373ffffffffffffffffffffffffffffffffffffffff160217905550600160009054906101000a900473ffffffffffffffffffffffffffffffffffffffff1673ffffffffffffffffffffffffffffffffffffffff1663a45f9717600233866040518463ffffffff1660e01b8152600401610dab939291906118aa565b600060405180830381600087803b158015610dc557600080fd5b505af1158015610dd9573d6000803e3d6000fd5b505050508273ffffffffffffffffffffffffffffffffffffffff163373ffffffffffffffffffffffffffffffffffffffff167f65d0cc1e52d49938ca4ad9f423c79c1b84d914b9a683fbc5d3f93ac3cc5635f583604051610e3a91906118f4565b60405180910390a3505050565b600160009054906101000a900473ffffffffffffffffffffffffffffffffffffffff1681565b6060600460008373ffffffffffffffffffffffffffffffffffffffff1673ffffffffffffffffffffffffffffffffffffffff168152602001908152602001600020805480602002602001604051908101604052809291908181526020018280548015610f2e57602002820191906000526020600020905b8160009054906101000a900473ffffffffffffffffffffffffffffffffffffffff1673ffffffffffffffffffffffffffffffffffffffff1681526020019060010190808311610ee4575b50505050509050919050565b60036020528160005260406000208181548110610f5657600080fd5b906000526020600020016000915091509054906101000a900473ffffffffffffffffffffffffffffffffffffffff1681565b6002602052816000526040600020602052806000526040600020600091509150508060000160009054906101000a900460ff16908060010154908060020154905083565b60005b8280549050811015611153578173ffffffffffffffffffffffffffffffffffffffff168382815481106110055761100461190f565b5b9060005260206000200160009054906101000a900473ffffffffffffffffffffffffffffffffffffffff1673ffffffffffffffffffffffffffffffffffffffff160361114057826001848054905061105d919061193e565b8154811061106e5761106d61190f565b5b9060005260206000200160009054906101000a900473ffffffffffffffffffffffffffffffffffffffff168382815481106110ac576110ab61190f565b5b9060005260206000200160006101000a81548173ffffffffffffffffffffffffffffffffffffffff021916908373ffffffffffffffffffffffffffffffffffffffff1602179055508280548061110557611104611972565b5b6001900381819060005260206000200160006101000a81549073ffffffffffffffffffffffffffffffffffffffff0219169055905550611155565b808061114b906119a1565b915050610fcf565b505b5050565b600073ffffffffffffffffffffffffffffffffffffffff82169050919050565b6000819050919050565b600061119e61119961119484611159565b611179565b611159565b9050919050565b60006111b082611183565b9050919050565b60006111c2826111a5565b9050919050565b6111d2816111b7565b82525050565b60006020820190506111ed60008301846111c9565b92915050565b600080fd5b600061120382611159565b9050919050565b611213816111f8565b811461121e57600080fd5b50565b6000813590506112308161120a565b92915050565b6000806040838503121561124d5761124c6111f3565b5b600061125b85828601611221565b925050602061126c85828601611221565b9150509250929050565b60008115159050919050565b61128b81611276565b82525050565b60006020820190506112a66000830184611282565b92915050565b6000819050919050565b6112bf816112ac565b81146112ca57600080fd5b50565b6000813590506112dc816112b6565b92915050565b600080604083850312156112f9576112f86111f3565b5b600061130785828601611221565b9250506020611318858286016112cd565b9150509250929050565b61132b816111f8565b82525050565b60006020820190506113466000830184611322565b92915050565b600060208284031215611362576113616111f3565b5b600061137084828501611221565b91505092915050565b600081519050919050565b600082825260208201905092915050565b6000819050602082019050919050565b6113ae816111f8565b82525050565b60006113c083836113a5565b60208301905092915050565b6000602082019050919050565b60006113e482611379565b6113ee8185611384565b93506113f983611395565b8060005b8381101561142a57815161141188826113b4565b975061141c836113cc565b9250506001810190506113fd565b5085935050505092915050565b6000602082019050818103600083015261145181846113d9565b905092915050565b6000611464826111a5565b9050919050565b61147481611459565b82525050565b600060208201905061148f600083018461146b565b92915050565b61149e816112ac565b82525050565b60006060820190506114b96000830186611282565b6114c66020830185611495565b6114d36040830184611495565b949350505050565b7f4e487b7100000000000000000000000000000000000000000000000000000000600052602160045260246000fd5b6004811061151757600080fd5b50565b6000815190506115298161150a565b92915050565b600060208284031215611545576115446111f3565b5b60006115538482850161151a565b91505092915050565b600082825260208201905092915050565b7f4f6e6c792070617469656e740000000000000000000000000000000000000000600082015250565b60006115a3600c8361155c565b91506115ae8261156d565b602082019050919050565b600060208201905081810360008301526115d281611596565b9050919050565b7f4e6f2061636365737320746f207265766f6b6500000000000000000000000000600082015250565b600061160f60138361155c565b915061161a826115d9565b602082019050919050565b6000602082019050818103600083015261163e81611602565b9050919050565b60068110611656576116556114db565b5b50565b600081905061166782611645565b919050565b600061167782611659565b9050919050565b6116878161166c565b82525050565b7f416363657373207265766f6b6564000000000000000000000000000000000000600082015250565b60006116c3600e8361155c565b91506116ce8261168d565b602082019050919050565b60006080820190506116ee600083018661167e565b6116fb6020830185611322565b6117086040830184611322565b8181036060830152611719816116b6565b9050949350505050565b7f41646472657373206973206e6f74206120646f63746f72000000000000000000600082015250565b600061175960178361155c565b915061176482611723565b602082019050919050565b600060208201905081810360008301526117888161174c565b9050919050565b7f41636365737320616c7265616479206772616e74656400000000000000000000600082015250565b60006117c560168361155c565b91506117d08261178f565b602082019050919050565b600060208201905081810360008301526117f4816117b8565b9050919050565b7f4e487b7100000000000000000000000000000000000000000000000000000000600052601160045260246000fd5b6000611835826112ac565b9150611840836112ac565b9250828201905080821115611858576118576117fb565b5b92915050565b7f416363657373206772616e746564000000000000000000000000000000000000600082015250565b6000611894600e8361155c565b915061189f8261185e565b602082019050919050565b60006080820190506118bf600083018661167e565b6118cc6020830185611322565b6118d96040830184611322565b81810360608301526118ea81611887565b9050949350505050565b60006020820190506119096000830184611495565b92915050565b7f4e487b7100000000000000000000000000000000000000000000000000000000600052603260045260246000fd5b6000611949826112ac565b9150611954836112ac565b925082820390508181111561196c5761196b6117fb565b5b92915050565b7f4e487b7100000000000000000000000000000000000000000000000000000000600052603160045260246000fd5b60006119ac826112ac565b91507fffffffffffffffffffffffffffffffffffffffffffffffffffffffffffffffff82036119de576119dd6117fb565b5b60018201905091905056fea2646970667358221220ce31508609b8839d36db00599ec4b071eec8a178969af5b0e7b69968763fc02364736f6c63430008130033",
  "linkReferences": {},
  "deployedLinkReferences": {}
}