{
  "_format": "hh-sol-artifact-1",
  "contractName": "AuditTrail",
  "sourceName": "contracts/AuditTrail.sol",
  "abi": [
    {
      "anonymous": false,
      "inputs": [
        {
          "indexed": true,
          "internalType": "uint256",
          "name": "id",
          "type": "uint256"
        },
        {
          "indexed": false,
          "internalType": "enum AuditTrail.ActionType",
          "name": "actionType",
          "type": "uint8"
        },
        {
          "indexed": true,
          "internalType": "address",
          "name": "performer",
          "type": "address"
        },
        {
          "indexed": true,
          "internalType": "address",
          "name": "subject",
          "type": "address"
        }
      ],
      "name": "AuditLogged",
      "type": "event"
    },
    {
      "inputs": [
        {
          "internalType": "uint256",
          "name": "",
          "type": "uint256"
        }
      ],
      "name": "entries",
      "outputs": [
        {
          "internalType": "uint256",
          "name": "id",
          "type": "uint256"
        },
        {
          "internalType": "enum AuditTrail.ActionType",
          "name": "actionType",
          "type": "uint8"
        },
        {
          "internalType": "address",
          "name": "performer",
          "type": "address"
        },
        {
          "internalType": "address",
          "name": "subject",
          "type": "address"
        },
        {
          "internalType": "string",
          "name": "details",
          "type": "string"
        },
        {
          "internalType": "uint256",
          "name": "timestamp",
          "type": "uint256"
        }
      ],
      "stateMutability": "view",
      "type": "function"
    },
    {
      "inputs": [],
      "name": "getAllEntryIds",
      "outputs": [
        {
          "internalType": "uint256",
          "name": "",
          "type": "uint256"
        }
      ],
      "stateMutability": "view",
      "type": "function"
    },
    {
      "inputs": [
        {
          "internalType": "uint256",
          "name": "_id",
          "type": "uint256"
        }
      ],
      "name": "getEntry",
      "outputs": [
        {
          "components": [
            {
              "internalType": "uint256",
              "name": "id",
              "type": "uint256"
            },
            {
              "internalType": "enum AuditTrail.ActionType",
              "name": "actionType",
              "type": "uint8"
            },
            {
              "internalType": "address",
              "name": "performer",
              "type": "address"
            },
            {
              "internalType": "address",
              "name": "subject",
              "type": "address"
            },
            {
              "internalType": "string",
              "name": "details",
              "type": "string"
            },
            {
              "internalType": "uint256",
              "name": "timestamp",
              "type": "uint256"
            }
          ],
          "internalType": "struct AuditTrail.AuditEntry",
          "name": "",
          "type": "tuple"
        }
      ],
      "stateMutability": "view",
      "type": "function"
    },
    {
      "inputs": [],
      "name": "getTotalEntries",
      "outputs": [
        {
          "internalType": "uint256",
          "name": "",
          "type": "uint256"
        }
      ],
      "stateMutability": "view",
      "type": "function"
    },
    {
      "inputs": [
        {
          "internalType": "address",
          "name": "_user",
          "type": "address"
        }
      ],
      "name": "getUserAuditIds",
      "outputs": [
        {
          "internalType": "uint256[]",
          "name": "",
          "type": "uint256[]"
        }
      ],
      "stateMutability": "view",
      "type": "function"
    },
    {
      "inputs": [
        {
          "internalType": "enum AuditTrail.ActionType",
          "name": "_actionType",
          "type": "uint8"
        },
        {
          "internalType": "address",
          "name": "_performer",
          "type": "address"
        },
        {
          "internalType": "address",
          "name": "_subject",
          "type": "address"
        },
        {
          "internalType": "string",
          "name": "_details",
          "type": "string"
        }
      ],
      "name": "log",
      "outputs": [],
      "stateMutability": "nonpayable",
      "type": "function"
    }
  ],
  "bytecode": "0x608060405234801561001057600080fd5b50611281806100206000396000f3fe608060405234801561001057600080fd5b50600436106100625760003560e01c806312d491c9146100675780631b9efecd14610085578063a1946348146100a3578063a45f9717146100d3578063b30906d4146100ef578063bae78d7b14610124575b600080fd5b61006f610154565b60405161007c91906108fc565b60405180910390f35b61008d610160565b60405161009a91906108fc565b60405180910390f35b6100bd60048036038101906100b8919061097f565b61016c565b6040516100ca9190610a6a565b60405180910390f35b6100ed60048036038101906100e89190610b16565b610203565b005b61010960048036038101906101049190610bca565b61053e565b60405161011b96959493929190610d0d565b60405180910390f35b61013e60048036038101906101399190610bca565b61065f565b60405161014b9190610e66565b60405180910390f35b60008080549050905090565b60008080549050905090565b6060600160008373ffffffffffffffffffffffffffffffffffffffff1673ffffffffffffffffffffffffffffffffffffffff1681526020019081526020016000208054806020026020016040519081016040528092919081815260200182805480156101f757602002820191906000526020600020905b8154815260200190600101908083116101e3575b50505050509050919050565b60008080549050905060006040518060c0016040528083815260200188600581111561023257610231610bf7565b5b81526020018773ffffffffffffffffffffffffffffffffffffffff1681526020018673ffffffffffffffffffffffffffffffffffffffff16815260200185858080601f016020809104026020016040519081016040528093929190818152602001838380828437600081840152601f19601f8201169050808301925050505050505081526020014281525090806001815401808255809150506001900390600052602060002090600502016000909190919091506000820151816000015560208201518160010160006101000a81548160ff0219169083600581111561031b5761031a610bf7565b5b021790555060408201518160010160016101000a81548173ffffffffffffffffffffffffffffffffffffffff021916908373ffffffffffffffffffffffffffffffffffffffff16021790555060608201518160020160006101000a81548173ffffffffffffffffffffffffffffffffffffffff021916908373ffffffffffffffffffffffffffffffffffffffff16021790555060808201518160030190816103c391906110c3565b5060a082015181600401555050600160008673ffffffffffffffffffffffffffffffffffffffff1673ffffffffffffffffffffffffffffffffffffffff1681526020019081526020016000208190806001815401808255809150506001900390600052602060002001600090919091909150558473ffffffffffffffffffffffffffffffffffffffff168473ffffffffffffffffffffffffffffffffffffffff16146104d057600160008573ffffffffffffffffffffffffffffffffffffffff1673ffffffffffffffffffffffffffffffffffffffff1681526020019081526020016000208190806001815401808255809150506001900390600052602060002001600090919091909150555b8373ffffffffffffffffffffffffffffffffffffffff168573ffffffffffffffffffffffffffffffffffffffff16827f78843ec047bcdca4b3300fdefd0763b5fb76417b208334da0a1e05b4a4d74d178960405161052e9190611195565b60405180910390a4505050505050565b6000818154811061054e57600080fd5b90600052602060002090600502016000915090508060000154908060010160009054906101000a900460ff16908060010160019054906101000a900473ffffffffffffffffffffffffffffffffffffffff16908060020160009054906101000a900473ffffffffffffffffffffffffffffffffffffffff16908060030180546105d690610ee6565b80601f016020809104026020016040519081016040528092919081815260200182805461060290610ee6565b801561064f5780601f106106245761010080835404028352916020019161064f565b820191906000526020600020905b81548152906001019060200180831161063257829003601f168201915b5050505050908060040154905086565b61066761086f565b60008054905082106106ae576040517f08c379a00000000000000000000000000000000000000000000000000000000081526004016106a5906111fc565b60405180910390fd5b600082815481106106c2576106c161121c565b5b90600052602060002090600502016040518060c0016040529081600082015481526020016001820160009054906101000a900460ff16600581111561070a57610709610bf7565b5b600581111561071c5761071b610bf7565b5b81526020016001820160019054906101000a900473ffffffffffffffffffffffffffffffffffffffff1673ffffffffffffffffffffffffffffffffffffffff1673ffffffffffffffffffffffffffffffffffffffff1681526020016002820160009054906101000a900473ffffffffffffffffffffffffffffffffffffffff1673ffffffffffffffffffffffffffffffffffffffff1673ffffffffffffffffffffffffffffffffffffffff1681526020016003820180546107dc90610ee6565b80601f016020809104026020016040519081016040528092919081815260200182805461080890610ee6565b80156108555780601f1061082a57610100808354040283529160200191610855565b820191906000526020600020905b81548152906001019060200180831161083857829003601f168201915b505050505081526020016004820154815250509050919050565b6040518060c00160405280600081526020016000600581111561089557610894610bf7565b5b8152602001600073ffffffffffffffffffffffffffffffffffffffff168152602001600073ffffffffffffffffffffffffffffffffffffffff16815260200160608152602001600081525090565b6000819050919050565b6108f6816108e3565b82525050565b600060208201905061091160008301846108ed565b92915050565b600080fd5b600080fd5b600073ffffffffffffffffffffffffffffffffffffffff82169050919050565b600061094c82610921565b9050919050565b61095c81610941565b811461096757600080fd5b50565b60008135905061097981610953565b92915050565b60006020828403121561099557610994610917565b5b60006109a38482850161096a565b91505092915050565b600081519050919050565b600082825260208201905092915050565b6000819050602082019050919050565b6109e1816108e3565b82525050565b60006109f383836109d8565b60208301905092915050565b6000602082019050919050565b6000610a17826109ac565b610a2181856109b7565b9350610a2c836109c8565b8060005b83811015610a5d578151610a4488826109e7565b9750610a4f836109ff565b925050600181019050610a30565b5085935050505092915050565b60006020820190508181036000830152610a848184610a0c565b905092915050565b60068110610a9957600080fd5b50565b600081359050610aab81610a8c565b92915050565b600080fd5b600080fd5b600080fd5b60008083601f840112610ad657610ad5610ab1565b5b8235905067ffffffffffffffff811115610af357610af2610ab6565b5b602083019150836001820283011115610b0f57610b0e610abb565b5b9250929050565b600080600080600060808688031215610b3257610b31610917565b5b6000610b4088828901610a9c565b9550506020610b518882890161096a565b9450506040610b628882890161096a565b935050606086013567ffffffffffffffff811115610b8357610b8261091c565b5b610b8f88828901610ac0565b92509250509295509295909350565b610ba7816108e3565b8114610bb257600080fd5b50565b600081359050610bc481610b9e565b92915050565b600060208284031215610be057610bdf610917565b5b6000610bee84828501610bb5565b91505092915050565b7f4e487b7100000000000000000000000000000000000000000000000000000000600052602160045260246000fd5b60068110610c3757610c36610bf7565b5b50565b6000819050610c4882610c26565b919050565b6000610c5882610c3a565b9050919050565b610c6881610c4d565b82525050565b610c7781610941565b82525050565b600081519050919050565b600082825260208201905092915050565b60005b83811015610cb7578082015181840152602081019050610c9c565b60008484015250505050565b6000601f19601f8301169050919050565b6000610cdf82610c7d565b610ce98185610c88565b9350610cf9818560208601610c99565b610d0281610cc3565b840191505092915050565b600060c082019050610d2260008301896108ed565b610d2f6020830188610c5f565b610d3c6040830187610c6e565b610d496060830186610c6e565b8181036080830152610d5b8185610cd4565b9050610d6a60a08301846108ed565b979650505050505050565b610d7e81610c4d565b82525050565b610d8d81610941565b82525050565b600082825260208201905092915050565b6000610daf82610c7d565b610db98185610d93565b9350610dc9818560208601610c99565b610dd281610cc3565b840191505092915050565b600060c083016000830151610df560008601826109d8565b506020830151610e086020860182610d75565b506040830151610e1b6040860182610d84565b506060830151610e2e6060860182610d84565b5060808301518482036080860152610e468282610da4565b91505060a0830151610e5b60a08601826109d8565b508091505092915050565b60006020820190508181036000830152610e808184610ddd565b905092915050565b7f4e487b7100000000000000000000000000000000000000000000000000000000600052604160045260246000fd5b7f4e487b7100000000000000000000000000000000000000000000000000000000600052602260045260246000fd5b60006002820490506001821680610efe57607f821691505b602082108103610f1157610f10610eb7565b5b50919050565b60008190508160005260206000209050919050565b60006020601f8301049050919050565b600082821b905092915050565b600060088302610f797fffffffffffffffffffffffffffffffffffffffffffffffffffffffffffffffff82610f3c565b610f838683610f3c565b95508019841693508086168417925050509392505050565b6000819050919050565b6000610fc0610fbb610fb6846108e3565b610f9b565b6108e3565b9050919050565b6000819050919050565b610fda83610fa5565b610fee610fe682610fc7565b848454610f49565b825550505050565b600090565b611003610ff6565b61100e818484610fd1565b505050565b5b8181101561103257611027600082610ffb565b600181019050611014565b5050565b601f8211156110775761104881610f17565b61105184610f2c565b81016020851015611060578190505b61107461106c85610f2c565b830182611013565b50505b505050565b600082821c905092915050565b600061109a6000198460080261107c565b1980831691505092915050565b60006110b38383611089565b9150826002028217905092915050565b6110cc82610c7d565b67ffffffffffffffff8111156110e5576110e4610e88565b5b6110ef8254610ee6565b6110fa828285611036565b600060209050601f83116001811461112d576000841561111b578287015190505b61112585826110a7565b86555061118d565b601f19841661113b86610f17565b60005b828110156111635784890151825560018201915060208501945060208101905061113e565b86831015611180578489015161117c601f891682611089565b8355505b6001600288020188555050505b505050505050565b60006020820190506111aa6000830184610c5f565b92915050565b7f456e74727920646f6573206e6f74206578697374000000000000000000000000600082015250565b60006111e6601483610c88565b91506111f1826111b0565b602082019050919050565b60006020820190508181036000830152611215816111d9565b9050919050565b7f4e487b7100000000000000000000000000000000000000000000000000000000600052603260045260246000fdfea2646970667358221220fa5d8e6a84e2d4a6530c0d6724048a4ea2ffc22588d03084262d25702c9e546964736f6c63430008130033",
  "linkReferences": {},
  "deployedLinkReferences": {}
}