{
  "_format": "hh-sol-artifact-1",
  "contractName": "RecordStorage",
  "sourceName": "contracts/RecordStorage.sol",
  "abi": [
    {
      "inputs": [
        {
          "internalType": "address",
          "name": "_roleManager",
          "type": "address"
        },
        {
          "internalType": "address",
          "name": "_accessControl",
          "type": "address"
        },
        {
          "internalType": "address",
          "name": "_auditTrail",
          "type": "address"
        }
      ],
      "stateMutability": "nonpayable",
      "type": "constructor"
    },
    {
      "anonymous": false,
      "inputs": [
        {
          "indexed": true,
          "internalType": "uint256",
          "name": "id",
          "type": "uint256"
        },
        {
          "indexed": true,
          "internalType": "address",
          "name": "patient",
          "type": "address"
        },
        {
          "indexed": true,
          "internalType": "address",
          "name": "doctor",
          "type": "address"
        }
      ],
      "name": "RecordCreated",
      "type": "event"
    },
    {
      "inputs": [],
      "name": "accessControl",
      "outputs": [
        {
          "internalType": "contract AccessControl",
          "name": "",
          "type": "address"
        }
      ],
      "stateMutability": "view",
      "type": "function"
    },
    {
      "inputs": [],
      "name": "auditTrail",
      "outputs": [
        {
          "internalType": "contract AuditTrail",
          "name": "",
          "type": "address"
        }
      ],
      "stateMutability": "view",
      "type": "function"
    },
    {
      "inputs": [
        {
          "internalType": "address",
          "name": "_patient",
          "type": "address"
        },
        {
          "internalType": "string",
          "name": "_diagnosis",
          "type": "string"
        },
        {
          "internalType": "string",
          "name": "_prescription",
          "type": "string"
        },
        {
          "internalType": "string",
          "name": "_notes",
          "type": "string"
        },
        {
          "internalType": "string",
          "name": "_ipfsHash",
          "type": "string"
        }
      ],
      "name": "createRecord",
      "outputs": [],
      "stateMutability": "nonpayable",
      "type": "function"
    },
    {
      "inputs": [
        {
          "internalType": "address",
          "name": "_patient",
          "type": "address"
        }
      ],
      "name": "getPatientRecordIds",
      "outputs": [
        {
          "internalType": "uint256[]",
          "name": "",
          "type": "uint256[]"
        }
      ],
      "stateMutability": "view",
      "type": "function"
    },
    {
      "inputs": [
        {
          "internalType": "uint256",
          "name": "_id",
          "type": "uint256"
        }
      ],
      "name": "getRecord",
      "outputs": [
        {
          "components": [
            {
              "internalType": "uint256",
              "name": "id",
              "type": "uint256"
            },
            {
              "internalType": "address",
              "name": "patient",
              "type": "address"
            },
            {
              "internalType": "address",
              "name": "doctor",
              "type": "address"
            },
            {
              "internalType": "string",
              "name": "diagnosis",
              "type": "string"
            },
            {
              "internalType": "string",
              "name": "prescription",
              "type": "string"
            },
            {
              "internalType": "string",
              "name": "notes",
              "type": "string"
            },
            {
              "internalType": "string",
              "name": "ipfsHash",
              "type": "string"
            },
            {
              "internalType": "uint256",
              "name": "createdAt",
              "type": "uint256"
            }
          ],
          "internalType": "struct RecordStorage.MedicalRecord",
          "name": "",
          "type": "tuple"
        }
      ],
      "stateMutability": "view",
      "type": "function"
    },
    {
      "inputs": [],
      "name": "getTotalRecords",
      "outputs": [
        {
          "internalType": "uint256",
          "name": "",
          "type": "uint256"
        }
      ],
      "stateMutability": "view",
      "type": "function"
    },
    {
      "inputs": [
        {
          "internalType": "uint256",
          "name": "",
          "type": "uint256"
        }
      ],
      "name": "records",
      "outputs": [
        {
          "internalType": "uint256",
          "name": "id",
          "type": "uint256"
        },
        {
          "internalType": "address",
          "name": "patient",
          "type": "address"
        },
        {
          "internalType": "address",
          "name": "doctor",
          "type": "address"
        },
        {
          "internalType": "string",
          "name": "diagnosis",
          "type": "string"
        },
        {
          "internalType": "string",
          "name": "prescription",
          "type": "string"
        },
        {
          "internalType": "string",
          "name": "notes",
          "type": "string"
        },
        {
          "internalType": "string",
          "name": "ipfsHash",
          "type": "string"
        },
        {
          "internalType": "uint256",
          "name": "createdAt",
          "type": "uint256"
        }
      ],
      "stateMutability": "view",
      "type": "function"
    },
    {
      "inputs": [],
      "name": "roleManager",
      "outputs": [
        {
          "internalType": "contract RoleManager",
          "name": "",
          "type": "address"
        }
      ],
      "stateMutability": "view",
      "type": "function"
    }
  ],
  "bytecode": "0x60806040523480156200001157600080fd5b5060405162001ebd38038062001ebd83398181016040528101906200003791906200016c565b826000806101000a81548173ffffffffffffffffffffffffffffffffffffffff021916908373ffffffffffffffffffffffffffffffffffffffff16021790555081600160006101000a81548173ffffffffffffffffffffffffffffffffffffffff021916908373ffffffffffffffffffffffffffffffffffffffff16021790555080600260006101000a81548173ffffffffffffffffffffffffffffffffffffffff021916908373ffffffffffffffffffffffffffffffffffffffff160217905550505050620001c8565b600080fd5b600073ffffffffffffffffffffffffffffffffffffffff82169050919050565b6000620001348262000107565b9050919050565b620001468162000127565b81146200015257600080fd5b50565b60008151905062000166816200013b565b92915050565b60008060006060848603121562000188576200018762000102565b5b6000620001988682870162000155565b9350506020620001ab8682870162000155565b9250506040620001be8682870162000155565b9150509250925092565b611ce580620001d86000396000f3fe608060405234801561001057600080fd5b50600436106100875760003560e01c8063344610671161005b57806334461067146101165780636248204e1461014d57806384e95fc71461017d578063aba02c1f1461019957610087565b8062435da51461008c57806303e9e609146100aa5780630aeacb5e146100da57806313007d55146100f8575b600080fd5b6100946101b7565b6040516100a19190610fe2565b60405180910390f35b6100c460048036038101906100bf919061103d565b6101db565b6040516100d191906111ef565b60405180910390f35b6100e2610567565b6040516100ef9190611220565b60405180910390f35b610100610574565b60405161010d919061125c565b60405180910390f35b610130600480360381019061012b919061103d565b61059a565b6040516101449897969594939291906112d0565b60405180910390f35b61016760048036038101906101629190611396565b610852565b6040516101749190611472565b60405180910390f35b610197600480360381019061019291906114f9565b6108e9565b005b6101a1610ecc565b6040516101ae9190611616565b60405180910390f35b60008054906101000a900473ffffffffffffffffffffffffffffffffffffffff1681565b6101e3610ef2565b600380549050821061022a576040517f08c379a00000000000000000000000000000000000000000000000000000000081526004016102219061167d565b60405180910390fd5b6003828154811061023e5761023d61169d565b5b906000526020600020906008020160405180610100016040529081600082015481526020016001820160009054906101000a900473ffffffffffffffffffffffffffffffffffffffff1673ffffffffffffffffffffffffffffffffffffffff1673ffffffffffffffffffffffffffffffffffffffff1681526020016002820160009054906101000a900473ffffffffffffffffffffffffffffffffffffffff1673ffffffffffffffffffffffffffffffffffffffff1673ffffffffffffffffffffffffffffffffffffffff16815260200160038201805461031e906116fb565b80601f016020809104026020016040519081016040528092919081815260200182805461034a906116fb565b80156103975780601f1061036c57610100808354040283529160200191610397565b820191906000526020600020905b81548152906001019060200180831161037a57829003601f168201915b505050505081526020016004820180546103b0906116fb565b80601f01602080910402602001604051908101604052809291908181526020018280546103dc906116fb565b80156104295780601f106103fe57610100808354040283529160200191610429565b820191906000526020600020905b81548152906001019060200180831161040c57829003601f168201915b50505050508152602001600582018054610442906116fb565b80601f016020809104026020016040519081016040528092919081815260200182805461046e906116fb565b80156104bb5780601f10610490576101008083540402835291602001916104bb565b820191906000526020600020905b81548152906001019060200180831161049e57829003601f168201915b505050505081526020016006820180546104d4906116fb565b80601f0160208091040260200160405190810160405280929190818152602001828054610500906116fb565b801561054d5780601f106105225761010080835404028352916020019161054d565b820191906000526020600020905b81548152906001019060200180831161053057829003601f168201915b505050505081526020016007820154815250509050919050565b6000600380549050905090565b600160009054906101000a900473ffffffffffffffffffffffffffffffffffffffff1681565b600381815481106105aa57600080fd5b90600052602060002090600802016000915090508060000154908060010160009054906101000a900473ffffffffffffffffffffffffffffffffffffffff16908060020160009054906101000a900473ffffffffffffffffffffffffffffffffffffffff169080600301805461061f906116fb565b80601f016020809104026020016040519081016040528092919081815260200182805461064b906116fb565b80156106985780601f1061066d57610100808354040283529160200191610698565b820191906000526020600020905b81548152906001019060200180831161067b57829003601f168201915b5050505050908060040180546106ad906116fb565b80601f01602080910402602001604051908101604052809291908181526020018280546106d9906116fb565b80156107265780601f106106fb57610100808354040283529160200191610726565b820191906000526020600020905b81548152906001019060200180831161070957829003601f168201915b50505050509080600501805461073b906116fb565b80601f0160208091040260200160405190810160405280929190818152602001828054610767906116fb565b80156107b45780601f10610789576101008083540402835291602001916107b4565b820191906000526020600020905b81548152906001019060200180831161079757829003601f168201915b5050505050908060060180546107c9906116fb565b80601f01602080910402602001604051908101604052809291908181526020018280546107f5906116fb565b80156108425780601f1061081757610100808354040283529160200191610842565b820191906000526020600020905b81548152906001019060200180831161082557829003601f168201915b5050505050908060070154905088565b6060600460008373ffffffffffffffffffffffffffffffffffffffff1673ffffffffffffffffffffffffffffffffffffffff1681526020019081526020016000208054806020026020016040519081016040528092919081815260200182805480156108dd57602002820191906000526020600020905b8154815260200190600101908083116108c9575b50505050509050919050565b600260038111156108fd576108fc61172c565b5b60008054906101000a900473ffffffffffffffffffffffffffffffffffffffff1673ffffffffffffffffffffffffffffffffffffffff166344276733336040518263ffffffff1660e01b8152600401610956919061175b565b602060405180830381865afa158015610973573d6000803e3d6000fd5b505050506040513d601f19601f82011682018060405250810190610997919061179b565b60038111156109a9576109a861172c565b5b146109e9576040517f08c379a00000000000000000000000000000000000000000000000000000000081526004016109e090611814565b60405180910390fd5b600160009054906101000a900473ffffffffffffffffffffffffffffffffffffffff1673ffffffffffffffffffffffffffffffffffffffff16631709ef078a336040518363ffffffff1660e01b8152600401610a46929190611834565b602060405180830381865afa158015610a63573d6000803e3d6000fd5b505050506040513d601f19601f82011682018060405250810190610a879190611895565b610ac6576040517f08c379a0000000000000000000000000000000000000000000000000000000008152600401610abd9061190e565b60405180910390fd5b6000600380549050905060036040518061010001604052808381526020018c73ffffffffffffffffffffffffffffffffffffffff1681526020013373ffffffffffffffffffffffffffffffffffffffff1681526020018b8b8080601f016020809104026020016040519081016040528093929190818152602001838380828437600081840152601f19601f82011690508083019250505050505050815260200189898080601f016020809104026020016040519081016040528093929190818152602001838380828437600081840152601f19601f82011690508083019250505050505050815260200187878080601f016020809104026020016040519081016040528093929190818152602001838380828437600081840152601f19601f82011690508083019250505050505050815260200185858080601f016020809104026020016040519081016040528093929190818152602001838380828437600081840152601f19601f8201169050808301925050505050505081526020014281525090806001815401808255809150506001900390600052602060002090600802016000909190919091506000820151816000015560208201518160010160006101000a81548173ffffffffffffffffffffffffffffffffffffffff021916908373ffffffffffffffffffffffffffffffffffffffff16021790555060408201518160020160006101000a81548173ffffffffffffffffffffffffffffffffffffffff021916908373ffffffffffffffffffffffffffffffffffffffff1602179055506060820151816003019081610d1e9190611aff565b506080820151816004019081610d349190611aff565b5060a0820151816005019081610d4a9190611aff565b5060c0820151816006019081610d609190611aff565b5060e082015181600701555050600460008b73ffffffffffffffffffffffffffffffffffffffff1673ffffffffffffffffffffffffffffffffffffffff168152602001908152602001600020819080600181540180825580915050600190039060005260206000200160009091909190915055600260009054906101000a900473ffffffffffffffffffffffffffffffffffffffff1673ffffffffffffffffffffffffffffffffffffffff1663a45f97176004338d6040518463ffffffff1660e01b8152600401610e3393929190611c65565b600060405180830381600087803b158015610e4d57600080fd5b505af1158015610e61573d6000803e3d6000fd5b505050503373ffffffffffffffffffffffffffffffffffffffff168a73ffffffffffffffffffffffffffffffffffffffff16827f162981e8660ef88d8be76f4d61429c8901ed3da7efbc4d5b833aab72ba8f41ae60405160405180910390a450505050505050505050565b600260009054906101000a900473ffffffffffffffffffffffffffffffffffffffff1681565b60405180610100016040528060008152602001600073ffffffffffffffffffffffffffffffffffffffff168152602001600073ffffffffffffffffffffffffffffffffffffffff16815260200160608152602001606081526020016060815260200160608152602001600081525090565b600073ffffffffffffffffffffffffffffffffffffffff82169050919050565b6000819050919050565b6000610fa8610fa3610f9e84610f63565b610f83565b610f63565b9050919050565b6000610fba82610f8d565b9050919050565b6000610fcc82610faf565b9050919050565b610fdc81610fc1565b82525050565b6000602082019050610ff76000830184610fd3565b92915050565b600080fd5b600080fd5b6000819050919050565b61101a81611007565b811461102557600080fd5b50565b60008135905061103781611011565b92915050565b60006020828403121561105357611052610ffd565b5b600061106184828501611028565b91505092915050565b61107381611007565b82525050565b600061108482610f63565b9050919050565b61109481611079565b82525050565b600081519050919050565b600082825260208201905092915050565b60005b838110156110d45780820151818401526020810190506110b9565b60008484015250505050565b6000601f19601f8301169050919050565b60006110fc8261109a565b61110681856110a5565b93506111168185602086016110b6565b61111f816110e0565b840191505092915050565b600061010083016000830151611143600086018261106a565b506020830151611156602086018261108b565b506040830151611169604086018261108b565b506060830151848203606086015261118182826110f1565b9150506080830151848203608086015261119b82826110f1565b91505060a083015184820360a08601526111b582826110f1565b91505060c083015184820360c08601526111cf82826110f1565b91505060e08301516111e460e086018261106a565b508091505092915050565b60006020820190508181036000830152611209818461112a565b905092915050565b61121a81611007565b82525050565b60006020820190506112356000830184611211565b92915050565b600061124682610faf565b9050919050565b6112568161123b565b82525050565b6000602082019050611271600083018461124d565b92915050565b61128081611079565b82525050565b600082825260208201905092915050565b60006112a28261109a565b6112ac8185611286565b93506112bc8185602086016110b6565b6112c5816110e0565b840191505092915050565b6000610100820190506112e6600083018b611211565b6112f3602083018a611277565b6113006040830189611277565b81810360608301526113128188611297565b905081810360808301526113268187611297565b905081810360a083015261133a8186611297565b905081810360c083015261134e8185611297565b905061135d60e0830184611211565b9998505050505050505050565b61137381611079565b811461137e57600080fd5b50565b6000813590506113908161136a565b92915050565b6000602082840312156113ac576113ab610ffd565b5b60006113ba84828501611381565b91505092915050565b600081519050919050565b600082825260208201905092915050565b6000819050602082019050919050565b60006113fb838361106a565b60208301905092915050565b6000602082019050919050565b600061141f826113c3565b61142981856113ce565b9350611434836113df565b8060005b8381101561146557815161144c88826113ef565b975061145783611407565b925050600181019050611438565b5085935050505092915050565b6000602082019050818103600083015261148c8184611414565b905092915050565b600080fd5b600080fd5b600080fd5b60008083601f8401126114b9576114b8611494565b5b8235905067ffffffffffffffff8111156114d6576114d5611499565b5b6020830191508360018202830111156114f2576114f161149e565b5b9250929050565b600080600080600080600080600060a08a8c03121561151b5761151a610ffd565b5b60006115298c828d01611381565b99505060208a013567ffffffffffffffff81111561154a57611549611002565b5b6115568c828d016114a3565b985098505060408a013567ffffffffffffffff81111561157957611578611002565b5b6115858c828d016114a3565b965096505060608a013567ffffffffffffffff8111156115a8576115a7611002565b5b6115b48c828d016114a3565b945094505060808a013567ffffffffffffffff8111156115d7576115d6611002565b5b6115e38c828d016114a3565b92509250509295985092959850929598565b600061160082610faf565b9050919050565b611610816115f5565b82525050565b600060208201905061162b6000830184611607565b92915050565b7f5265636f726420646f6573206e6f742065786973740000000000000000000000600082015250565b6000611667601583611286565b915061167282611631565b602082019050919050565b600060208201905081810360008301526116968161165a565b9050919050565b7f4e487b7100000000000000000000000000000000000000000000000000000000600052603260045260246000fd5b7f4e487b7100000000000000000000000000000000000000000000000000000000600052602260045260246000fd5b6000600282049050600182168061171357607f821691505b602082108103611726576117256116cc565b5b50919050565b7f4e487b7100000000000000000000000000000000000000000000000000000000600052602160045260246000fd5b60006020820190506117706000830184611277565b92915050565b6004811061178357600080fd5b50565b60008151905061179581611776565b92915050565b6000602082840312156117b1576117b0610ffd565b5b60006117bf84828501611786565b91505092915050565b7f4f6e6c7920646f63746f72000000000000000000000000000000000000000000600082015250565b60006117fe600b83611286565b9150611809826117c8565b602082019050919050565b6000602082019050818103600083015261182d816117f1565b9050919050565b60006040820190506118496000830185611277565b6118566020830184611277565b9392505050565b60008115159050919050565b6118728161185d565b811461187d57600080fd5b50565b60008151905061188f81611869565b92915050565b6000602082840312156118ab576118aa610ffd565b5b60006118b984828501611880565b91505092915050565b7f4e6f2061636365737320746f20746869732070617469656e7400000000000000600082015250565b60006118f8601983611286565b9150611903826118c2565b602082019050919050565b60006020820190508181036000830152611927816118eb565b9050919050565b7f4e487b7100000000000000000000000000000000000000000000000000000000600052604160045260246000fd5b60008190508160005260206000209050919050565b60006020601f8301049050919050565b600082821b905092915050565b6000600883026119bf7fffffffffffffffffffffffffffffffffffffffffffffffffffffffffffffffff82611982565b6119c98683611982565b95508019841693508086168417925050509392505050565b60006119fc6119f76119f284611007565b610f83565b611007565b9050919050565b6000819050919050565b611a16836119e1565b611a2a611a2282611a03565b84845461198f565b825550505050565b600090565b611a3f611a32565b611a4a818484611a0d565b505050565b5b81811015611a6e57611a63600082611a37565b600181019050611a50565b5050565b601f821115611ab357611a848161195d565b611a8d84611972565b81016020851015611a9c578190505b611ab0611aa885611972565b830182611a4f565b50505b505050565b600082821c905092915050565b6000611ad660001984600802611ab8565b1980831691505092915050565b6000611aef8383611ac5565b9150826002028217905092915050565b611b088261109a565b67ffffffffffffffff811115611b2157611b2061192e565b5b611b2b82546116fb565b611b36828285611a72565b600060209050601f831160018114611b695760008415611b57578287015190505b611b618582611ae3565b865550611bc9565b601f198416611b778661195d565b60005b82811015611b9f57848901518255600182019150602085019450602081019050611b7a565b86831015611bbc5784890151611bb8601f891682611ac5565b8355505b6001600288020188555050505b505050505050565b60068110611be257611be161172c565b5b50565b6000819050611bf382611bd1565b919050565b6000611c0382611be5565b9050919050565b611c1381611bf8565b82525050565b7f4d65646963616c207265636f7264206372656174656400000000000000000000600082015250565b6000611c4f601683611286565b9150611c5a82611c19565b602082019050919050565b6000608082019050611c7a6000830186611c0a565b611c876020830185611277565b611c946040830184611277565b8181036060830152611ca581611c42565b905094935050505056fea2646970667358221220d0ab9334d5cf68108430ff83dc7117a0ce63cbee3bfc6eded0955979c18ee5fe64736f6c63430008130033",
  "linkReferences": {},
  "deployedLinkReferences": {}
}