{
  "_format": "hh-sol-artifact-1",
  "contractName": "RoleManager",
  "sourceName": "contracts/RoleManager.sol",
  "abi": [
    {
      "inputs": [
        {
          "internalType": "address",
          "name": "_auditTrail",
          "type": "address"
        }
      ],
      "stateMutability": "nonpayable",
      "type": "constructor"
    },
    {
      "anonymous": false,
      "inputs": [
        {
          "indexed": true,
          "internalType": "address",
          "name": "doctor",
          "type": "address"
        }
      ],
      "name": "DoctorRegistered",
      "type": "event"
    },
    {
      "anonymous": false,
      "inputs": [
        {
          "indexed": true,
          "internalType": "address",
          "name": "patient",
          "type": "address"
        }
      ],
      "name": "PatientRegistered",
      "type": "event"
    },
    {
      "inputs": [],
      "name": "admin",
      "outputs": [
        {
          "internalType": "address",
          "name": "",
          "type": "address"
        }
      ],
      "stateMutability": "view",
      "type": "function"
    },
    {
      "inputs": [],
      "name": "auditTrail",
      "outputs": [
        {
          "internalType": "contract AuditTrail",
          "name": "",
          "type": "address"
        }
      ],
      "stateMutability": "view",
      "type": "function"
    },
    {
      "inputs": [
        {
          "internalType": "uint256",
          "name": "",
          "type": "uint256"
        }
      ],
      "name": "doctorList",
      "outputs": [
        {
          "internalType": "address",
          "name": "",
          "type": "address"
        }
      ],
      "stateMutability": "view",
      "type": "function"
    },
    {
      "inputs": [],
      "name": "getDoctorCount",
      "outputs": [
        {
          "internalType": "uint256",
          "name": "",
          "type": "uint256"
        }
      ],
      "stateMutability": "view",
      "type": "function"
    },
    {
      "inputs": [],
      "name": "getDoctors",
      "outputs": [
        {
          "internalType": "address[]",
          "name": "",
          "type": "address[]"
        }
      ],
      "stateMutability": "view",
      "type": "function"
    },
    {
      "inputs": [],
      "name": "getPatientCount",
      "outputs": [
        {
          "internalType": "uint256",
          "name": "",
          "type": "uint256"
        }
      ],
      "stateMutability": "view",
      "type": "function"
    },
    {
      "inputs": [],
      "name": "getPatients",
      "outputs": [
        {
          "internalType": "address[]",
          "name": "",
          "type": "address[]"
        }
      ],
      "stateMutability": "view",
      "type": "function"
    },
    {
      "inputs": [
        {
          "internalType": "address",
          "name": "_addr",
          "type": "address"
        }
      ],
      "name": "getRole",
      "outputs": [
        {
          "internalType": "enum RoleManager.Role",
          "name": "",
          "type": "uint8"
        }
      ],
      "stateMutability": "view",
      "type": "function"
    },
    {
      "inputs": [
        {
          "internalType": "uint256",
          "name": "",
          "type": "uint256"
        }
      ],
      "name": "patientList",
      "outputs": [
        {
          "internalType": "address",
          "name": "",
          "type": "address"
        }
      ],
      "stateMutability": "view",
      "type": "function"
    },
    {
      "inputs": [
        {
          "internalType": "address",
          "name": "_doctor",
          "type": "address"
        }
      ],
      "name": "registerDoctor",
      "outputs": [],
      "stateMutability": "nonpayable",
      "type": "function"
    },
    {
      "inputs": [],
      "name": "registerPatient",
      "outputs": [],
      "stateMutability": "nonpayable",
      "type": "function"
    },
    {
      "inputs": [
        {
          "internalType": "address",
          "name": "",
          "type": "address"
        }
      ],
      "name": "roles",
      "outputs": [
        {
          "internalType": "enum RoleManager.Role",
          "name": "",
          "type": "uint8"
        }
      ],
      "stateMutability": "view",
      "type": "function"
    }
  ],
  "bytecode": "0x60806040523480156200001157600080fd5b50604051620011ef380380620011ef833981810160405281019062000037919062000194565b336000806101000a81548173ffffffffffffffffffffffffffffffffffffffff021916908373ffffffffffffffffffffffffffffffffffffffff1602179055506001600260003373ffffffffffffffffffffffffffffffffffffffff1673ffffffffffffffffffffffffffffffffffffffff16815260200190815260200160002060006101000a81548160ff02191690836003811115620000dd57620000dc620001c6565b5b021790555080600160006101000a81548173ffffffffffffffffffffffffffffffffffffffff021916908373ffffffffffffffffffffffffffffffffffffffff16021790555050620001f5565b600080fd5b600073ffffffffffffffffffffffffffffffffffffffff82169050919050565b60006200015c826200012f565b9050919050565b6200016e816200014f565b81146200017a57600080fd5b50565b6000815190506200018e8162000163565b92915050565b600060208284031215620001ad57620001ac6200012a565b5b6000620001bd848285016200017d565b91505092915050565b7f4e487b7100000000000000000000000000000000000000000000000000000000600052602160045260246000fd5b610fea80620002056000396000f3fe608060405234801561001057600080fd5b50600436106100b45760003560e01c80639937464211610071578063993746421461017b578063aba02c1f146101ab578063b13d5d94146101c9578063babb1d41146101e7578063c190665b14610217578063f851a44014610235576100b4565b8063127ca4b4146100b957806312ad1c37146100e95780634427673314610107578063699ca9981461013757806379111c1c14610153578063822d388514610171575b600080fd5b6100d360048036038101906100ce9190610a5f565b610253565b6040516100e09190610acd565b60405180910390f35b6100f1610292565b6040516100fe9190610ba6565b60405180910390f35b610121600480360381019061011c9190610bf4565b610320565b60405161012e9190610c98565b60405180910390f35b610151600480360381019061014c9190610bf4565b610376565b005b61015b61067e565b6040516101689190610cc2565b60405180910390f35b61017961068b565b005b61019560048036038101906101909190610bf4565b6108e0565b6040516101a29190610c98565b60405180910390f35b6101b3610900565b6040516101c09190610d3c565b60405180910390f35b6101d1610926565b6040516101de9190610ba6565b60405180910390f35b61020160048036038101906101fc9190610a5f565b6109b4565b60405161020e9190610acd565b60405180910390f35b61021f6109f3565b60405161022c9190610cc2565b60405180910390f35b61023d610a00565b60405161024a9190610acd565b60405180910390f35b6003818154811061026357600080fd5b906000526020600020016000915054906101000a900473ffffffffffffffffffffffffffffffffffffffff1681565b6060600480548060200260200160405190810160405280929190818152602001828054801561031657602002820191906000526020600020905b8160009054906101000a900473ffffffffffffffffffffffffffffffffffffffff1673ffffffffffffffffffffffffffffffffffffffff16815260200190600101908083116102cc575b5050505050905090565b6000600260008373ffffffffffffffffffffffffffffffffffffffff1673ffffffffffffffffffffffffffffffffffffffff16815260200190815260200160002060009054906101000a900460ff169050919050565b6001600381111561038a57610389610c21565b5b600260003373ffffffffffffffffffffffffffffffffffffffff1673ffffffffffffffffffffffffffffffffffffffff16815260200190815260200160002060009054906101000a900460ff1660038111156103e9576103e8610c21565b5b14610429576040517f08c379a000000000000000000000000000000000000000000000000000000000815260040161042090610db4565b60405180910390fd5b6000600381111561043d5761043c610c21565b5b600260008373ffffffffffffffffffffffffffffffffffffffff1673ffffffffffffffffffffffffffffffffffffffff16815260200190815260200160002060009054906101000a900460ff16600381111561049c5761049b610c21565b5b146104dc576040517f08c379a00000000000000000000000000000000000000000000000000000000081526004016104d390610e20565b60405180910390fd5b60028060008373ffffffffffffffffffffffffffffffffffffffff1673ffffffffffffffffffffffffffffffffffffffff16815260200190815260200160002060006101000a81548160ff0219169083600381111561053e5761053d610c21565b5b02179055506003819080600181540180825580915050600190039060005260206000200160009091909190916101000a81548173ffffffffffffffffffffffffffffffffffffffff021916908373ffffffffffffffffffffffffffffffffffffffff160217905550600160009054906101000a900473ffffffffffffffffffffffffffffffffffffffff1673ffffffffffffffffffffffffffffffffffffffff1663a45f9717600033846040518463ffffffff1660e01b815260040161060693929190610ed4565b600060405180830381600087803b15801561062057600080fd5b505af1158015610634573d6000803e3d6000fd5b505050508073ffffffffffffffffffffffffffffffffffffffff167f2dc8105a7545248d0e354c4c6b02fb583071cc719fb4bef1ca74d72d475570bc60405160405180910390a250565b6000600380549050905090565b6000600381111561069f5761069e610c21565b5b600260003373ffffffffffffffffffffffffffffffffffffffff1673ffffffffffffffffffffffffffffffffffffffff16815260200190815260200160002060009054906101000a900460ff1660038111156106fe576106fd610c21565b5b1461073e576040517f08c379a000000000000000000000000000000000000000000000000000000000815260040161073590610e20565b60405180910390fd5b6003600260003373ffffffffffffffffffffffffffffffffffffffff1673ffffffffffffffffffffffffffffffffffffffff16815260200190815260200160002060006101000a81548160ff021916908360038111156107a1576107a0610c21565b5b02179055506004339080600181540180825580915050600190039060005260206000200160009091909190916101000a81548173ffffffffffffffffffffffffffffffffffffffff021916908373ffffffffffffffffffffffffffffffffffffffff160217905550600160009054906101000a900473ffffffffffffffffffffffffffffffffffffffff1673ffffffffffffffffffffffffffffffffffffffff1663a45f9717600133336040518463ffffffff1660e01b815260040161086993929190610f6a565b600060405180830381600087803b15801561088357600080fd5b505af1158015610897573d6000803e3d6000fd5b505050503373ffffffffffffffffffffffffffffffffffffffff167fc9fa2003fca4ce0dfc8cb0deae32266b715536df6685365b05b5be96ede8e49c60405160405180910390a2565b60026020528060005260406000206000915054906101000a900460ff1681565b600160009054906101000a900473ffffffffffffffffffffffffffffffffffffffff1681565b606060038054806020026020016040519081016040528092919081815260200182805480156109aa57602002820191906000526020600020905b8160009054906101000a900473ffffffffffffffffffffffffffffffffffffffff1673ffffffffffffffffffffffffffffffffffffffff1681526020019060010190808311610960575b5050505050905090565b600481815481106109c457600080fd5b906000526020600020016000915054906101000a900473ffffffffffffffffffffffffffffffffffffffff1681565b6000600480549050905090565b60008054906101000a900473ffffffffffffffffffffffffffffffffffffffff1681565b600080fd5b6000819050919050565b610a3c81610a29565b8114610a4757600080fd5b50565b600081359050610a5981610a33565b92915050565b600060208284031215610a7557610a74610a24565b5b6000610a8384828501610a4a565b91505092915050565b600073ffffffffffffffffffffffffffffffffffffffff82169050919050565b6000610ab782610a8c565b9050919050565b610ac781610aac565b82525050565b6000602082019050610ae26000830184610abe565b92915050565b600081519050919050565b600082825260208201905092915050565b6000819050602082019050919050565b610b1d81610aac565b82525050565b6000610b2f8383610b14565b60208301905092915050565b6000602082019050919050565b6000610b5382610ae8565b610b5d8185610af3565b9350610b6883610b04565b8060005b83811015610b99578151610b808882610b23565b9750610b8b83610b3b565b925050600181019050610b6c565b5085935050505092915050565b60006020820190508181036000830152610bc08184610b48565b905092915050565b610bd181610aac565b8114610bdc57600080fd5b50565b600081359050610bee81610bc8565b92915050565b600060208284031215610c0a57610c09610a24565b5b6000610c1884828501610bdf565b91505092915050565b7f4e487b7100000000000000000000000000000000000000000000000000000000600052602160045260246000fd5b60048110610c6157610c60610c21565b5b50565b6000819050610c7282610c50565b919050565b6000610c8282610c64565b9050919050565b610c9281610c77565b82525050565b6000602082019050610cad6000830184610c89565b92915050565b610cbc81610a29565b82525050565b6000602082019050610cd76000830184610cb3565b92915050565b6000819050919050565b6000610d02610cfd610cf884610a8c565b610cdd565b610a8c565b9050919050565b6000610d1482610ce7565b9050919050565b6000610d2682610d09565b9050919050565b610d3681610d1b565b82525050565b6000602082019050610d516000830184610d2d565b92915050565b600082825260208201905092915050565b7f4f6e6c792061646d696e00000000000000000000000000000000000000000000600082015250565b6000610d9e600a83610d57565b9150610da982610d68565b602082019050919050565b60006020820190508181036000830152610dcd81610d91565b9050919050565b7f4164647265737320616c726561647920686173206120726f6c65000000000000600082015250565b6000610e0a601a83610d57565b9150610e1582610dd4565b602082019050919050565b60006020820190508181036000830152610e3981610dfd565b9050919050565b60068110610e5157610e50610c21565b5b50565b6000819050610e6282610e40565b919050565b6000610e7282610e54565b9050919050565b610e8281610e67565b82525050565b7f446f63746f722072656769737465726564000000000000000000000000000000600082015250565b6000610ebe601183610d57565b9150610ec982610e88565b602082019050919050565b6000608082019050610ee96000830186610e79565b610ef66020830185610abe565b610f036040830184610abe565b8181036060830152610f1481610eb1565b9050949350505050565b7f50617469656e7420726567697374657265640000000000000000000000000000600082015250565b6000610f54601283610d57565b9150610f5f82610f1e565b602082019050919050565b6000608082019050610f7f6000830186610e79565b610f8c6020830185610abe565b610f996040830184610abe565b8181036060830152610faa81610f47565b905094935050505056fea264697066735822122032ee09953f27883ce48f5ba9c43c71572a3cabbea603aa52c8489809d6d6aa0e64736f6c63430008130033",
  "linkReferences": {},
  "deployedLinkReferences": {}
}